:400000000040002011000000D10B0000D10B000010B500F0FFFDC04610B512221B4B1A60302001F0F9F91A4A1A4B1A60A022D200194B1A60194B1A4A1A60E8214901194A27
:400040001160194A1A6088218901184A1160184A1A6082221206174B1A608022D202164B1A604022154B1A600132154B1A600132144B1A601449072001F004F9072001F088
:40008000EBF80022114B1A6010BDC046300010400600008004010B40000301400000014040FF00800403014041FF00800803014042FF008008010B4000010B4028010140D9
:4000C00014010140100101406D1500000C020B4010B572B600240FE031486200131959000B00411889881A5AC31858880004104300F038FD0134E4B2012CEDD928480100CE
:400100000C31243000F014FDC022D204254B1A60EE221202244B1A609922244B1A605532234B1A6099231B04224A1360224A136080218905214A1160214A136021490B78FC
:400140003C22934314221343DBB20B701E4A117816230B43DBB21370C02252031B4B1A6040231B4A13601B4A13601B4A1B4B1A6002231B4A136031211A4A11601A4A1360C5
:40018000D8229202194B1A600322194B1A602132184B1A60FFF740FF00F0FAFC10BDC046D87000000001024000030240000502400007024000500F4010500F4018500F404D
:4001C00030500F4001700F4000700F40080004400001044018010440B60D00000803044000050440080504401805044008060440000704400807044010B5064C2378002BE9
:4002000007D1054B002B02D0044800E000BF0123237010BD6001002000000000846F0000084B10B5002B03D00749084800E000BF07480368002B00D110BD064B002BFBD097
:400240009847F9E70000000064010020846F0000C000002000000000162827D88000164B1B589F462022154B1A6022E02222134B1A601EE02322114B1A601AE028220F4B00
:400280001A6016E02A220D4B1A6012E02B220B4B1A600EE02C22094B1A600AE02E22074B1A6006E02F22054B1A6002E00022034B1A60024B18687047886F0000F801002030
:4002C00010B500F0B9FD0B4B1868002302220A4900F0D2FD041E08D100F096FD8307FBD500F092FD830502D502E0012400E00124200010BDF8010020FC01002010B500F0CA
:400300009BFD0A4B186800230122094900F030FE041E07D100F078FDC307FBD500F074FD830501D4024B1C78200010BDF80100202402002010B50C4B30221A705870FFF700
:40034000BFFFFFF7DBFFFFF7D9FF132805D0FFF7D5FF032803D0002002E0012000E00120024B186010BDC046FC010020E801002010B5054BD0221A70CD3A5A70FFF7A0FF70
:400380000220FFF7D7FF10BDFC01002070B505000C00FFF7EDFF002D01D0112200E01022024B1A705C70FFF78BFF70BDFC01002010B5002801D0312200E03022054B1A7080
:4003C00003225A70FFF77CFFFFF798FF024B186010BDC046FC010020E801002010B5FFF73BFF10BDF0B5474680B484B00390080005F08EFC02000B000020404905F0DEF85B
:4004000000223F4B04F060FE04000D003D4B9846186805F07DFC02000B00009201932000290004F051FE04000D004346586805F06FFC06000F0002000B002000290003F082
:40044000F3FE04000D00304B1C605D60039805F05FFC02000B000020284905F0AFF80022274B04F031FE02000B000098019904F02BFE02000B003000390003F0D5FE06004C
:400480000F00224B1E605F60009A019B2000290004F0F6F904000D0043469868400005F037FC32003B0004F0EBF90022184B03F0BBFE02000B002000290004F005FE154BFC
:4004C0001860596001F002FC0022134B04F0FCFD124B186059600022114B04F0F5FD01F0A1FB00220E4B04F0CBF90E4B1860596005F0A4FC04B004BC9046F0BD00007040F7
:400500000000703FC4000020D8010020E00100200000F03F18020020000034401002002000002440C8010020F0B58BB0099005F031FC04000D00964A964B03F0AFF80028A3
:4005400019D0FF22944B1A70944C00232370944BDA68944B1A60FF210020FFF717FF21780120FFF713FF904B1860002800D104E1FE20800509E18D4A8D4B2000290003F041
:4005800079F8002818D00022834B1A70834CFF232370834B1A69834B1A6000210020FFF7F5FE21780120FFF7F1FE7F4B1860002800D1E5E07F48E8E07F49099803F016FA5F
:4005C00005F0E8FB02000B0000207C4901F00AFC05F034FC089000273E00BBE0704C2768380003F0D9FD089903F01AFB0590300005F08EFB02000B000020714904F0DEFF8D
:400600000022704B04F060FD02900391380005F07FFB0090019102000B000298039904F053FD06900791606805F072FB0290039102000B000698079903F0F6FD0690079139
:40064000A06805F065FB069A079B04F019F902000B0003F0E9FD00225B4B03F0E5FD04000D00059805F096FB22002B0004F008F9029A039B04F0A2FF0022514B04F024FD3A
:40068000009A019B04F0FCF802000B0000204C4904F094FF01F0C6FA04000D004B4B1C605D600022464B02F0E5FF002851D0002200232000290002F0FBFF002849D0F7B20C
:4006C0002000290002F0FEFFC1B23800FFF78AFE05F060FB3E4C2060616005F0E3FA01003C4805F089FC3C49099803F099FA05F051FB01F097FA0022304B04F0C1F8374D70
:400700002860696005F0CEFA0100354805F074FC2A686B682068616804F050FF04004D00304A314B2000690802F0A4FF002810D0194B1F70254B1868596802F0C3FF174BA0
:4007400018702A4B1868596805F078FB154B186003E00136FF2E00DC40E70F4B19780020FFF714FE0D4B19780120FFF70FFE0E4B1860002807D0002007E08020C00504E071
:400780008020C00501E08020C0050BB0F0BDC046AE47E17A146E3C40C401002004020020C4000020D0010020EC0100207B14AE47E13A44C0000080BF0000A04100002440BE
:4007C000000070400000703F0000F03FF0010020C801002024700000000020410802002038700000333333333333D33F1002002010B5011C034B186802F082FFFFF794FE89
:4008000010BDC046D001002010B5011C034B186803F01AFBFFF788FE10BDC046D001002010B50020FFF7C4FD064C20700120FFF7BFFDC1B2044B19702078FFF7D3FD034BB4
:40084000186010BDC401002004020020D001002070B51600002405E04D1C087800F03EFC01342900B442F7DB300070BD10B50F2800D9D2E08000694B1B589F46002000F03A
:40088000C5FF002000F0CEFF002000F0D7FF002000F0E0FFC1E0002000F0B8FF002000F0C1FF002000F0CAFF012000F0D3FFB4E0002000F0ABFF002000F0B4FF012000F0AC
:4008C000BDFF002000F0C6FFA7E0002000F09EFF002000F0A7FF012000F0B0FF012000F0B9FF9AE0002000F091FF012000F09AFF002000F0A3FF002000F0ACFF8DE0002036
:4009000000F084FF012000F08DFF002000F096FF012000F09FFF80E0002000F077FF012000F080FF012000F089FF002000F092FF73E0002000F06AFF012000F073FF012033
:4009400000F07CFF012000F085FF66E0012000F05DFF002000F066FF002000F06FFF002000F078FF59E0012000F050FF002000F059FF002000F062FF012000F06BFF4CE031
:40098000012000F043FF002000F04CFF012000F055FF002000F05EFF3FE0012000F036FF002000F03FFF012000F048FF012000F051FF32E0012000F029FF012000F032FFBE
:4009C000002000F03BFF002000F044FF25E0012000F01CFF012000F025FF002000F02EFF012000F037FF18E0012000F00FFF012000F018FF012000F021FF002000F02AFFC7
:400A00000BE0012000F002FF012000F00BFF012000F014FF012000F01DFF10BDE46F000070B562B600F056F900F03AFB002000F0EFFD00F091FE1620FFF7D0FC0022324B7A
:400A40001A700120FFF712FF00F096FE2F4805F04FFB00F0B7FBC4B2552C11D1FE208005FFF7C6FE03F076FB0100294805F0C4FAFFF7D6FE03F06EFB0100264805F0BCFAE9
:400A8000442C11D1FE208005FFF7BEFE03F062FB0100214805F0B0FAFFF7C2FE03F05AFB01001C4805F0A8FA412C1AD11B4805F01FFB00210020FFF769FC00210120FFF79E
:400AC00065FC0020FFF774FC06000120FFF770FC05003100124805F08FFA2900114805F08BFA422CB5D1002000F050FE0100002000F062FE0C4903F093F803F02BFB0100CC
:400B00000A4805F079FAEEE7050200204C70000060700000707000008470000094700000A0700000B470000000007A44C8700000F0B50025002711E0BB00C658F3B2FF22F0
:400B4000964308E06A008A181478A419527822700135013BDBB2002BF4D10137032FEBD9F0BDC04610B50A00002105F03DFA10BD064B1B68002803D080221206134301E08A
:400B80005B005B08014A13607047C04680033A4010B50323094A1360094A136080221206084B1A608022D202074B1A600022074B1A600120FFF7DCFF10BDC046300030406C
:400BC0003000314000003A4000033A40000E3F4010B505F0DDF903680C2B00D1FEE7FEE710B50300094A1068C318094A9A1A802189008A4202DC054A136005E005F0C8F95D
:400C00000C2303600120404210BDC046D80000206002002070B50F4E0F4D13E029686B68AC68002202E001C901C30432A242FAD1E868002202E0002102C304328242FAD173
:400C40001035013E002EE9D105F0A8F9FFF7E8FEFEE7C046010000005873000010B50E4A136801218B43136000230AE0032B03D89A000A49505800E009489900094A885044
:400C800001332F2BF2D9FFF723FA034A116801230B43136010BDC0460000104000000000D10B00000000002010B50B2000F0D4FA10BDC04610B500F01DF810BD10B5044AD3
:400CC0001368802109060B431360FFF7EDFF10BD0000274010B5064B1B78002B04D1FFF7E9FF0122024B1A70FFF7E8FF10BDC0467C01002010B50024184B1C60184A194B96
:400D00001A60194B194A1360194A1460194A1460194A1360194B1C600B2000F0A7FA03210B2000F0C1FA16490B2000F0ABFA154B1C60154B1C60154B1C60154B1C60154BF6
:400D40001C60154B1C601022144B1A70144B1C80144B1C60144B1C6010BDC0460000274077080080600027400701008000032740040327401003274000022740040227409F
:400D800091180000C80E2740880E2740480F2740080F2740C80F2740880F27402C0200203C020020380200204002002010B50E4A13685B005B08136000230C490B600C496F
:400DC0000B600C4804680C49214001600B490B600B490B6010210B4B19701368802109060B43136010BDC04600002740680027406C00274060002740FF5CFFFF880F27403D
:400E0000C80F27402C02002010B50B2000F02EFA074B1C88A2B21400064B1B789B0602D504231A4394B20B2000F016FA200010BD3C0200202C02002010B50B2000F016FAE6
:400E4000044B1C88A4B200221A800B2000F004FA200010BD3C020020054B1B682022134000D0082301221343024A13607047C0466400274068002740F0B583B001900C00A2
:400E800017001D00002917D02A4B1B78102B08D10B2000F0EBF9284B1B68DB070ED508260FE0244B1B78602B0AD1244A138808218B431380002604E0042602E0002600E0E4
:400EC0000426002E2FD128221A4B1A7000231C4A13601C4A13601C4B1F601C4B1C60EAB21B4B1A70019B5C00FF231C40134A138802218B4313804023164A13601649174A4F
:400F000011601421FF31164A1160164A1360EB0704D5FFF7A1FF144B1C6004E0124B1C600222124B1A600B2000F096F9300003B0F0BDC0462C020020640027403C0200208C
:400F40004802002040020020500200203402002044020020800F274017030000000F2740080F2740880F27404002274068002740F0B583B001900C0017001D00002917D044
:400F80002F4B1B78102B08D10B2000F06FF92D4B1B68DB070ED508260FE0294B1B78602B0AD1294A138808218B431380002604E0042602E0002600E00426002E39D12922E2
:400FC0001F4B1A700022214B1A60214A1760214B1C60EBB220490B70019B5C00FF231C400120044318490B8883430B801B491C4B19601421FF311B4B19601368072B03D877
:401000000422194B1A6008E0184A1368802149000B4313600822144B1A60EB0704D5FFF71BFF134B1C6004E0114B1C600222114B1A600B2000F010F9300003B0F0BDC04614
:401040002C020020640027403C020020380200204C020020300200204402002017030000000F2740080F2740C80F274060002740400227406800274010B500F091F810BDE3
:4010800010B500F039F810BD10B5044A1368802109060B431360FFF7EFFF10BD0000264010B5064B1B78002B04D1FFF7E9FF0122024B1A70FFF7E8FF10BDC0468401002091
:4010C000014B18687047C04640032640024B1B681F2018407047C04608032640044B1B681F221340082BF9D0024B18607047C0460802264040022640154A164B1A600023D0
:40110000154A13601549164A1160164A16490A6007201649086016490B6006381549086015490A60154A13600421154A1160154A1360154A1360154A1360154A1360154A93
:401140001360154A13601268144B1A807047C0460B000002000026404000264001000A004800264007000080000326400403264010032640440026400002264004022640D4
:4011800050002640880E2640C80E2640480F2640080F2640C80F2640880F26408601002005490B68F0229343603A13430B60034B1A88034B1A6070470005024086010020C5
:4011C000880F264010B5FFF781FF002802D0FFF777FF00E00020054B1A68D8239B001A4203D01A00014B1A60002010BDC00F264000230AE00D4A12683F210A400C49C95CB6
:401200008A4201D1033303E001332D2BF2D9032308490868084A02400A60084A944663441B78DBB2064A13607047C0462CFF0B400C71000000002240FFFFFFBFCDF1FF0F6B
:4012400028FF0B40034B18688023DB05184000D001207047000022401F2318401E3B8340014A13607047C04600E100E01F2318401E3B8340014A13607047C04680E100E0E5
:4012800001BE704770B504000D001F2802D90020FFF7F6FF1034A40080239B059C4664442068256070BDC04670B504000E00032902D90020FFF7E4FF1F2C02D90020FFF7ED
:4012C000DFFF03252540ED00063500F0DAFAA408A400074B9C46644421680323AB4099430B003100A9401943216000F0CEFA70BD00E400E010B5040006E0084B586800F098
:40130000B7FA074B9C46644480231B029C42F4D8024B9868604300F0ABFA10BDDC0000200080FFFF70B582B000F0CAF800285DD000F0A7FA050000230AE02D4A12683F2198
:401340000A402C49C95C8A4201D1033303E001332D2BF2D903230021274A1160274A1268D20606D1254802681F318A4313390A430260234C2168234A1140234A5A43802366
:40138000DB019C466244D20B013A5205520D0B001343A0225203134323601C4B1B680193302000F015FC1A4A13688021C9050B4313602668174B1E40002407E00120FFF75C
:4013C00099FF1034A30533430D4A1360EE2CF5D90120FFF78FFFFF239B051E43084B1E60019A0A4B1A60280000F04FFA02B070BD2CFF0B400C71000028FF0B4034FF0B401B
:401400000800224000F800C040420F003000104000002240FFFF3FC030B587B0040000F030FA0500FFF70EFF002803D0FFF7E0FE012100E00021104B1B6800930F4B1B6898
:401440000193033C0E4B1B5D02930E4B1B68039304AA0D4B04936B4605930C4B1A600C480C4A10601B68012901D1FFF75BFF280000F00BFA07B030BD08010B4000010B40C0
:401480000C71000030001040B6EA000008001040170000800400104010B5034B1B7B584300F0E6F910BDC046DC000020034B1868C0231B02184000D00120704700010B4050
:4014C000034B1B68002B01DA012000E0002070470000224010B500F0D4F9044A1368C02109020B43136000F0D0F910BD00010B4010B500F0C6F908490A68084B1A40802489
:40150000E40122430A600A6813408022120213430B6000F0BAF910BD00010B40FF3FFFFF70B5050000F0ADF90400FFF7BFFF002803D0FFF7DDFF012100E0002108482840A3
:40154000084A1568084B2B40184310601368012901D1FFF7BFFF200000F097F970BDC0460404040010020B40FBFBFBFF10B5244B1B685B0715D5234B5B685B070ED5224BD6
:40158000596A042001401F4C62688A4362605A6A82435A629B69002B00D098470420FFF7BFFF174B1B685B0518D5164B5B685B0510D5154B596A8022D200114011484268BE
:4015C0008A434260596A114A0A405A62DB69002B00D098478020C000FFF7A2FF084B1B685B030CD5074B5B685B0304D5064B1B6A002B00D098478020C002FFF791FF10BD7D
:4016000010020B40F000002088010020FFFBFFFF04490A68D2B240239A43800118401043086070470000044010B503211020FFF73BFE24491020FFF725FE0122224B1A6082
:40164000224B1B68002B01DA214900E02149224A13680B431360214A214B1A60214A224B1A600023214A13602149224A11602249224A116022490A688020400202430A6077
:40168000204A1360204A13600122204B1A60204A1168204B0B40802189050B43136000230DE09A001C4951188020C0000860580000241A4944521A481A4950500133002B66
:4016C000EFD010BD0118000020003A4080033A40700210507002005000003A40FC00008004003A400000FF0718003A401C003A400600020010003A400200020014003A4054
:4017000000033A4028023A4038023A4018023A4030003A40FEFFFFDF80003A40580200203E1800005402002010B5094B1B68002B0CDB084B1B68002BFBDB054A136880218B
:4017400009060B4313600A20FFF7A6FE10BDC04600003A4008023A4010B5064B1B78002B04D1FFF761FF0122024B1A70FFF7DCFF10BDC046B0010020034A136880214902E2
:401780000B4313607047C04604003A4010B5041E02D00020FFF774FD002C07D1A400054B9C46644420680004000C00E0002000B210BDC04680013A4070B504000D000028F5
:4017C00002D00020FFF75CFD62000A4BD05A00B2281A00B202F0E0FC074902F021FA051CA400064BE05802F0D7FC011C281C02F0FDF870BD5802002000002041540200201D
:40180000014B1A681A60704710023A40044A1368DBB201218B430840184310607047C0460003044004490A68D2B210239A43000118401043086070470006044004490A6899
:40184000D2B202239A43400018401043086070470003044004490A68D2B220239A434001184010430860704700060440000000000230800803D00138FDD1C046C046C04633
:401880007047EFF3108072B6704780F31088704710B5AF4B1B68002B00D09847AD4B1B68DB0702D50022AC4B1A60AC4B1B789B0628D5AB4B1B68DB0507D5AA4A1188C023AE
:4018C0009B000B431380012300E00023A44A1268D20706D5A34A118890239B000B4313800123002B0FD09D4A1278D20701D5012200E002229B49088802430A800021974ABA
:40190000117000E00023954A1278920600D417E1934A1268D20611D51022934B1A608F4B1B78DB0701D5012300E002238D4A11880B4313801022894B1A7007E1874A127845
:40194000120720D5864A126892070AD50222864B1A60844A118888239B000B431380012311E07E4A1278D20703D525217B4A117009E02421794A11707C4A1268002A02D048
:4019800014397B4A1160754A1278520700D4AEE0724A1278D20749D5764A1268120727D5754A1268754909681F240C40744909686418141B082C09D8002C16D1714A1168E8
:4019C000714B0B401360012308340EE008240CE06B4A11686D48006841186D480068C0B20870116801311160013C002CF0D119E0604A1268520715D5614A1168634800687F
:401A0000411863480068C0B208701168013111601168594A1268914203D204215D4A116000E001235C495D4A116060E04C4A1268920726D502224C4B1A6059490B681D327B
:401A40001A40096880231B020B4000D001239B18544A1168CB1A13601268534B1A60414A118884239B000B431380504B1A68802149020A431A6019684D4A0A401A600123D1
:401A800035E04C4A1268D2061ED427E0454A1168364A126891421DD2344A1268013A414909688A4204D1402243490A6030490A603C4A11684148006841180978C9B2404895
:401AC0000160116801311160354A12681F210A40082ADBD11021384A116008E0354A1268520604D52F4B1A682F4B1A600123002B2CD0244A1168244B0B4013600023314AE5
:401B000013601B4A1360304B1B789B070ED5134B1B78DB0701D5092300E00A23114A11880B43138060220D4B1A700FE0274B1B689B0601D5182200E01022164B1A6005E045
:401B4000064B1B78DB0601D4FFF730F910BDC046800100208C0E2740880E27402C0200200C0F27403C020020000F274050020020880F2740CC0F27404C0200200803274004
:401B80003802002060002740FFFEFFFF300200204003274068002740ED0F0000C00F274008022740480200204002002004022740FFFFFEFF8C0F2740800F27403402002019
:401BC00040022740C80F2740440200206400274070B50400FFF755FE0500102C05D8104A136803218B43136016E0202C07D80C490B6803229343023A13430B600CE0302CDA
:401C000007D807490B6803229343013A13430B6002E00020FFF734FB2800FFF736FE70BD30001040F8B5254A4B005B0D9A1807000C00132A16DC002A38DB214B060013411F
:401C40001C000C4004430D00002C08D0802424031441611899430C0000200600250030002900F8BD332A0CDD80230600DB000D009A42F4D102000B0002F0D6FA06000D0070
:401C8000EDE7104D0600AC46012563446D42DD402B000D000342E2D03325AD1A0122AA401018874200D94C1C9843D6E7C90FCC070020531CD1D1044B1C43CEE701FCFFFF03
:401CC000FFFF0F00EDFBFFFF0000F03FF0B546464F46C0B48DB004000D0000F03FFA3C4B06001B780F005BB29846013310D022002B002000290003F0B5FF8146002807D1DF
:401D0000002200232000290001F0BEFC002806D1300039000DB00CBC90469946F0BD2D4B0494059503934B460A93434606940795002B1AD1E022284B1206089209932000F5
:401D400000220023290001F08FFC002838D00223029302A801F0D0F8002817D00A9B0193002B18D108980999D4E700221B4B20000892099329000022002301F075FC0028FD
:401D80000FD0022302934346022BE2D104F000F922230360E2E704F0FBF80A9B01930360E0E7012302934346022B0BD104F0F0F8212303600A4801F0A1F808900991CDE7E9
:401DC0000123029302A801F097F80028F2D1EDE7F80000203C710000FFFFEFC70000F0FFD4700000F0B55F464D4656464446F0B491B01F0004000D00160000F043FACF4B20
:401E0000029003919B461B785BB2994601334FD032003B003000390003F024FF0090002846D122002B002000290003F01BFF00228246002834D100232000290001F014FCE7
:401E400000283AD0002200233000390001F00CFC0590002800D174E006AB9846012342460693B74B5360434652469C60DD601A621E615F614246002300249361D4614B4680
:401E8000002B00D194E00023AE4C009301940098019911B03CBC90469946A246AB46F0BD00233000390001F0DFFB002800D0EBE0029B039C00930194E9E70298039901F0D2
:401EC00011F88146002800D186E0029803990022002301F0C9FB0028EAD02000290001F001F8029A039B009201930028CFD03000390000F0F7FF029A039B00920193002870
:401F0000C5D006AB98460423424606938C4B9460D560536000230024136200239361D4615B461B78166157615BB2022B04D0404600F0E2FF002840D104F02AF822230360BB
:401F40003BE03000390000F0CDFF029A039B0092019300289BD0002200233000390001F089FB002800D192E706AB9846012342460693734B53604346059A9C60DD601A6277
:401F80001E615F615B461B785BB2002B0BD0002042466D499061D161022B09D103F0F8FF2123036009E04246002300249361D461404600F0A1FF0028F0D043461B6A002B6A
:401FC00004D003F0E5FF43461B6A03604346DC699B69009301945AE72000290000F082FF002800D171E73000390000F07BFF002800D16AE7029803990B00020003F032FEFC
:4020000006AB984600287AD10323424606934C4B106253605B461B789460D5605BB2166157619946002B48D1E0224146474B12068A61CB61200000220023290001F01AFB01
:40204000002800D173E70022414B3000390003F03BF804000D0000F057FF02000B002000290001F001FB002805D1E022394B120641468A61CB615B461B785BB299464B464B
:40208000022B00D053E757E706AB98460123424606932B4B536043469C60DD600024009A284D1A621E615F619C61DD614B4600940195022B00D07BE7E9E600224146264BC0
:4020C00020008A61CB6100220023290001F0D2FA0028D4D000221E4B3000390002F0F4FF04000D0000F010FF02000B002000290001F0BAFA0028BED10022134BB8E70123D4
:40210000424606930E4B536043464A469C60DD601A621E615F6100245B461C57002C00D141E7002300221900100002F0A9FB43469861D961022C00D130E739E7F8000020FA
:40214000447100000000F03F0000F0FFFFFFEF470000E03FFFFFEFC70000F07FF0B54F464646C0B43B4A83B004000D000B0091421CDC4A00520802435BD0002960DB0022A3
:40218000354B02F0A1FF36220D000B003349040052428B420EDD22002B002000290002F043F803B00CBC90469946F0BD2B4900228B42F0DC2A4918158C4660448218D10F72
:4021C00089461B034A441B0B1000984603F0A0FD4A46244B06009B1A42461B051A430F002000110000F09AFF1F4A04000D001F4B3000390002F068FF1D4A009001911D4BA1
:402200002000290002F060FF02000B000098019902F00AF8184A04000D00184B3000390002F052FF02000B002000290001F0FCFFB7E7002200230020114902F021FBB0E70B
:4022400002000B0003F0BAF90022002302F018FBA7E7C046FFFF0F0000005043FFFFEF7F01FCFFFFFF030000362BF111F3FE593D0EE526157BCBDB3F00609F501344D33F94
:40228000000050C3F0B556464D4644465F46F0B41C001300670091B07F080093019406000D0080468946A2463B4332D06E4B6C0064089C4229DC26D09F4226DC6A4B9F42EB
:4022C00000D189E000239B464B46002B00DA87E0002A2FD1644B9F4200D19FE0634B9F425DD08023DB059A4501D100F0C1FB604B9A451FD14B46002B1CDB3000290000F087
:40230000F7FC060007E000280DD05A4BE01830430BD100265549300011B03CBC90469946A246AB46F0BDA742C8DD534800F0E6FD0600F0E73000290000F0D0FD4346002B41
:402340001DD0EB0F013B98465B464246134379D04A4B9F4200DC9FE0494B9F4201DC00F0CEFB484B9C4279DD5346002B79DD464A464B1000190002F0A7FE0600CBE7002C12
:4023800004D03A4AAB009B089342DAD15346002B00DAADE34B46002B0DDB0600BBE753462900002BB7DA32002B0000202F4902F067FA0600AFE72F4B9C465B4664441C4317
:4023C00001D100F02BFC5B460600012BA3D180231B069C4661449EE7002A00D172E794E72B4B9F422BDC274B9F4200DC70E729493B158C466344142B01DC00F0F2FB3421A1
:40240000CB1A0099D94008009840824200D05FE70123194001335B1A9B4659E7154BE018064300D175E7174B9C4200DC51E35346002B16DB009B019C1E0021006BE7022343
:402440009B4645E732002B003000290003F0B6F802000B0002F014FA06005CE75346002B85DB0026002156E70000F07F0000F03F0000E03F000010C0D47000000000E04108
:402480000000F043FFFFEF3F9C7500883CE4377EFFFF3F4301FCFFFFE84B00229C4206DC0022E74B02F010FE35220C005242E54D2315AC46634499462403E34DE34B240BDE
:4024C000914425439C4209DDE14B9C4200DCA9E301239C46DF4BE1449C466544002300240022089309940C930D940024D64B06920793069A079B29000A900B9103F05EF847
:40250000069A079B06000F000A980B9901F08CFE02000B000020CC4902F0B2F90A00010013000E910F9202003900300002F0CCFD0A00010080200491059213000022802173
:402540000003844602920393002289056D100D4365442B190298039914001D0002F0B4FD02000B003000390003F028F8069A079B06000F002000290003F020F802000B00AF
:402580000A980B9903F01AF8029A039B02F09CFD02000B003000390003F010F80E9A0F9B02F092FD049D059E069007912A0033002800310002F088FD06000F00A64AA74B31
:4025C00002F082FDA64AA74B01F02EFE32003B0002F07AFDA44AA54B01F026FE32003B0002F072FDA24AA34B01F01EFE32003B0002F06AFDA04AA14B01F016FE32003B00DF
:4026000002F062FD9E4A9F4B01F00EFE320004000D003B003000390002F056FD02000B002000290002F050FD029E039F04000D000498059932003B0001F0F6FD069A079B99
:4026400002F042FD22002B0001F0EEFD32000A900B913B00300039000296039702F034FD0022894B04000D0001F0DEFD0A9A0B9B01F0DAFD00260F0032000B000298039912
:4026800002F022FD0022029003917F4B3000390002F094FF22002B0002F090FF02000B000A980B9902F08AFF049A059B02F00CFD320004000D00069807993B0002F004FD85
:4026C00002000B002000290001F0AEFD04000D0002000B000298039901F0A6FD0026E0226A4B120630000F0002F0EEFC029A039B049005913000390002F060FF02000B00C5
:402700002000290002F05AFF614A604B02F0DCFC604A04000D00604B3000390002F0D4FC02000B002000290001F07EFD0C9A0D9B01F07AFD060048460F0003F0E9FA04005F
:402740000D000498059932003B0001F06DFD089A099B01F069FD22002B0001F065FD002022002B000290039102F028FF089A099B02F024FF049A059B02F020FF02000B00AA
:402780003000390002F01AFF049005915B464246013B134300D197E100232B4C069307940098019900260B0032000F0002F006FF029A039B02F088FC009A019B04000D0017
:4027C0000498059902F080FC02000B002000290001F02AFD04000D00029803993B0032000494059502F070FC009001910B0002002900200001F018FD284B81460F008A46E8
:40280000994200DC3CE1264BCB18034300D0DBE104980599234A244B01F006FD009A019B04000D004846390002F0C8FE02000B002000290000F032FF3E0037E0FFFF0F00F5
:402840000000404301FCFFFF0000F03F8E98030079B60B000000F0FFEF4E454A287ECA3F65DBC9934A86CD3F01411DA96074D13F4D268F515555D53FFFAB6FDBB66DDB3F38
:40288000033333333333E33F0000084009C7EE3FFD033ADCF5015B14E02F3EBEFFFF8F40000070BFFE822B654715973C002800D08AE18022E74B52039C4613003615664478
:4028C0003341E549DB195E001C001B038C461B0B13431422760DE14F66443741961B334198465346BC4300202100002B00DAA9E102000B000098019902F060FE0B000090BC
:40290000019102000498059901F08EFC43461B05994600200022D24B06000F0002F0D4FB009A019B029003913000390002F046FE02000B000498059902F040FEC94ACA4BF7
:4029400002F0C2FBC94A04000D00C94B3000390002F0BAFB02000B002000290001F064FC04000D0002000B000298039901F05CFC029A039B06000F0002F020FE02000B00B0
:402980002000290002F01AFE3200009001913B003000390002F098FB04000D00B54AB64B02F092FBB54AB64B02F008FE22002B0002F08AFBB34AB44B01F036FC22002B008F
:4029C00002F082FBB14AB24B02F0F8FD22002B0002F07AFBAF4AB04B01F026FC22002B0002F072FB02000B003000390002F0E6FD04000D0002000B003000390002F064FBFF
:402A00008023029003910022DB052000290002F0D5FD02000B000298039901F031FF009A019B04000D003000390002F04DFB009A019B01F0F9FB02000B002000290002F00D
:402A4000BDFD32003B0002F0B9FD02000B000020924902F0B3FD4B465B181A15002A00DCF4E01900069A079B02F02EFB060052E4320030002B00290002F026FB06004AE421
:402A8000874B4E0076089E4200DCBFE0854BCB1803430CD1009A019B02F090FD02000B000498059900F0F0FD002800D101E7069807997D4A7D4B02F007FB7B4A7B4B02F04F
:402AC00003FB0600FFF727FC0023794C0693079466E65346002B00DBC3E4009B019C802212061E009446230063441900FFF713FC02000B000020694901F0C2FE4AE46D4BC3
:402B00009C4200DCAAE4654B9C4201DDFFF72CFC0022624B02F052FDC022674BD20504000D0002F0D1FA654A06000F00644B2000290002F0C9FA002202900391614B2000F5
:402B4000290002F0C1FA02000B005F485F4902F035FD22002B0002F0B7FA02000B0000205B4902F02BFD2200049005912B002000290002F0A9FA02000B000498059902F096
:402B8000A3FA544A4C4B02F09FFA02000B000298039902F013FD02000B0004000D003000390001F041FB002210003B0032000290039102F003FD02000B002000290002F0C0
:402BC000FDFC04900591E1E5434A444B0698079902F07AFA404A414B02F076FA0600FFF79AFB002A01D0FFF7A5FB1432D31A3A001A41110099408F4201D0FFF76FFB0123BA
:402C000013400222D31A9B46FFF768FB304B9E4200DD4EE60023994698467AE602000B00FFF714FC80232E4CDB05089309942D4B2D4C00220C930D9480242C4BE402069216
:402C4000079356E443465B42984651E6424600F0FDF907E702FCFFFF01FCFFFFFFFF0F00432EE63FEF39FAFE422EE63F396CA80C615C20BED0A4BE726937663EF16BD2C5CB
:402C800041BDBB3E2CDE25AF6A56113F93BDBE166CC1663F3E5555555555C53F0000F03FFFCB904000346F3F59F3F8C21F6EA5010000F0BFFEFFEF3F4715F73F44DF5DF886
:402CC0000BAE543E0000D03F555555555555D53F0000E03FFE822B659C7500883CE4377E03B8E23F06D0CF43EBFD4C3E0000F83FF0B556464D4644465F46754BF0B40A00ED
:402D00000D00190083B0060004002940994200D1BAE0002D00DC94E02D1500D1A3E06D4B12039C468023120B5B0365441A43EB0700D581E06B109846E30F9B189B18802220
:402D400016210026002764009203B818984202DC87181B1AB618E00F5B0001391B18640052080029F1D1002201929446802212062020914609E09F4241D0E10FC918013807
:402D8000CB186400520800281ED0614651189F42F1DA8D18AC46CD0FED07BA464D4539D0DB1B8C42BF417F42DB1B641A019901388B46934459460191E10FC9185746CB18A8
:402DC000640052080028E0D123432BD1019B5B08414972108C466244F10702D5802109060B43414609058D181E002F003000390003B03CBC90469946A246AB46F0BDA142D1
:402E00000ED88D18AC46CD0FED074D4548D09A460023CAE76546002DC2DB7D1CAA46BFE73B00AAE7019B01333ED0019A01239446134063445B08CBE7E30F52009A18640097
:402E400078E76B005B0803432F00002BCED00025002A31D1E20A153D6405002AFAD080235B031A4223D180200023400300E00B005200591C0242FAD02020401AED1A230020
:402E8000C3408C401A434AE702002B00290002F01BF932002B0001F0C7F906000F00A5E76546002DB9DAB2E70136002390E7012320205B420021E1E73B000200390002F083
:402EC0007DFB02000B0001F0DBFC06000F008DE70000F07F01FCFFFF0000E03F49004B0819007047034B48009C4640086044C00F7047C04600001080002070470020014946
:402F00007047C0460000F87FF0B5474680B4CB0F98464A4C4B005B0D1E1982B007000A00132E35DC002E57DB454B040033411F000F4007430D00002F24D05B081C000C400F
:402F400020430027002807D0132E00D172E08022D202324199430A434346DE00394B11009E1934687568380022002B0001F05CF9009001910098019922002B0002F01EFBAF
:402F800004000D002000290002B004BC9046F0BD332E0CDD80230400DB000D009E42F1D102000B0001F040F904000D00EAE7264C0D00A446012463446442DC40A4466146A6
:402FC00004000142DED049080142C5D08027FF051F4188430743BFE74B005B08034304000D00002BCED00B031B0B03435A42134380221B0B120313404A0C52041343190068
:403000004346104ADB00D3181C685D6822002B0001F00AF9009001910098019922002B0002F0CCFA42464B005B08D607334304001D00A7E780273F0689E7C04601FCFFFF6F
:40304000FFFF0F0048710000EDFBFFFF4B0070B55B0D14000A00002B1AD14B005B08034315D00022224B02F02FF8224B0A009C4222DB4B005B0D363B1F4DE318AB4220DC51
:40308000002B0DDD1D4C1B0522401A43110070BD1B4DAB42F0D102000B0001F0C5F8F6E71D00353518DA174B02009C420ADC0B001548164900F034FA134A144B02F004F897
:4030C000E5E702000B001248124900F029FA104A104B01F0F9FFDAE7084C363322401B051343190000220C4B01F0EEFFCFE7C04600005043B03CFFFFFE070000FFFF0F8000
:40310000FF07000050C3000059F3F8C21F6EA5019C7500883CE4377E0000903CF0B557464E464546E0B4DA4A88B00B00914255DC4A005208024300D1EFE0002900DA79E1BD
:40314000D44B002201F0C0FF3625D34C0B006D42A34247DC1A151B031B0B9846CF4C8023A446CF4C5B0344442340CE4C624452195C4045461B1599462543CA4B29009144E9
:40318000002202F01BFA434602331B0306000F001B0B0022022B2FDC002300F065FA002800D1C1E04B46002B00D14CE1484602F0AFFDBD4ABD4B04000D0001F085FFBC4AE8
:4031C00006000F00BB4B2000290001F07DFF02000B003000390001F027F807E0AE4C0025A342B7DD02000B0001F01EF808B01CBC90469946A246F0BD8023DB0501F014F88B
:4032000002000B003000390001F03AFB040048460D0002F07DFD2200029003912B00200029000494059501F04FFF04000D00A24B020043449A460B000094019501F044FFEA
:4032400004000D009D4A9E4B01F03EFF9D4A9E4B00F0EAFF22002B0001F036FF9B4A9C4B00F0E2FF22002B0001F02EFF994A9A4B00F0DAFF009A019B01F026FF974A0090CD
:403280000191974B2000290001F01EFF954A964B00F0CAFF22002B0001F016FF934A944B00F0C2FF22002B0001F00EFF0B0002000098019900F0B8FF0D0041468D4B040069
:4032C0005B1A51460B43002B54DD00228A4B3000390001F0F9FE32003B0001F0F5FE4B460A00010000910192002B72D1130029000200200000F098FF049A059B01F0E4FE5B
:4033000002000B000098019902F058F902000B003000390002F052F968E7002200230020764901F0ADFA61E7754A764B3000390001F0CAFE02000B0000206F4902F03EF955
:40334000320004000D003B003000390001F0BCFE0B0002002900200001F0B6FE4B4604000D00002B72D102000B003000390002F025F93BE74B46002B00D1C5E002980399A0
:40338000494A4A4B01F0A0FE2200009001912B003000390002F012F9049A059B01F094FE434A04000D0002980399424B01F08CFE02000B002000290002F000F932003B0036
:4033C00002F0FCF802000B000098019902F0F6F80CE7354A354B0298039901F075FE009A019B069007912000290000F01DFF049A059B01F069FE2E4A04000D00029803992E
:403400002C4B01F061FE02000B002000290000F00BFF02000B000098019902F0CFF832003B0002F0CBF802000B000698079902F0C5F8DBE602000B0002F0C0F800220023A4
:4034400001F01EFAD2E600200021CFE6484602F05FFC154A154B0090019101F035FE144A0290039100980199124B01F02DFE02000B002000290002F0A1F832003B0002F046
:403480009DF802000B000298039902F097F8ADE6FFFF0F0000005043FFFFEF7F01FCFFFF645F09000000F03F0000E0FE422EE63F763C7935EF39EA3D86EBF9FF44523EDFE0
:4034C00012F1C23FDE03CB966446C73F599322942449D23F935555555555E53F9FC678D0099AC33FAF788E1DC571CC3F04FA97999999D93F51B806000000E03F000050C338
:40350000555555555555D53F22002B003000390002F054F8049A059B01F0D6FDF6E6C04630B54A00DB0FDB0752081A43110030BD002243088B4274D303098B425FD3030A58
:403540008B4244D3030B8B4228D3030C8B420DD3FF22090212BA030C8B4202D31212090265D0030B8B4219D300E0090AC30B8B4201D3CB03C01A5241830B8B4201D38B03A7
:40358000C01A5241430B8B4201D34B03C01A5241030B8B4201D30B03C01A5241C30A8B4201D3CB02C01A5241830A8B4201D38B02C01A5241430A8B4201D34B02C01A524152
:4035C000030A8B4201D30B02C01A5241CDD2C3098B4201D3CB01C01A524183098B4201D38B01C01A524143098B4201D34B01C01A524103098B4201D30B01C01A5241C308A1
:403600008B4201D3CB00C01A524183088B4201D38B00C01A524143088B4201D34B00C01A5241411A00D20146524110467047FFE701B5002000F006F802BDC0460029F7D076
:4036400076E770477047C0468446101C62468C46191C634600E0C0461FB501F0CBFC002801D40021C8421FBD10B501F01FFC4042013010BD10B501F0BDFC002801DB0020D1
:4036800010BD012010BDC04610B501F0B3FC002801DD002010BD012010BDC04610B501F045FC002801DC002010BD012010BDC04610B501F03BFC002801DA002010BD012022
:4036C00010BDC04670B500220C4B04000D00FFF7EFFF002804D12000290002F0E3FA70BD064B00222000290001F068FF02F0DAFA80231B069C466044F1E7C0460000E041FF
:40370000F8B54A02430244004E00C50F240E28009B09360EC90F92098D4259D0A01B002800DC8DE0002E1AD1002A00D079E05A0704D00F221A40042A00D004335A0138D543
:403740000134FF2C00D189E028009B015B0AE4B25B02E4055B0A2343C0071843F8BDFF2CE5D08021C9040A431B2800DD89E016002021C640081A8240511E8A4132439B1A3F
:403780005A0114D59B019E09300002F0E3FB05388640844265DC041B330020200134E340041BA640721E964100243343BFE75A07BFD1DF082800FF2C2FD1002F00D187E050
:4037C0008022D20313003B435B025B0AFF24BFE7A11B002949DD002E29D0FF2CA7D08026F60432431B2900DD8DE017002026CF40711A8A40511E8A413A439B185A01D6D58E
:403800000134FF2C64D0012276491A405B080B4013438CE7031ECAD100207B025B0AE4B296E701380028AAD0FF2C9DD17FE7002A00D17CE701390029DFD0FF2CD2D176E7FB
:40384000002820D1601CC0B2012853DD80279E1AFF0437402FD0D61A0D0095E72800002376E7614B241A334061E700294DD1611CCEB2012E2FDDFF292AD09B185B080C0087
:4038800055E701227BE7002C1BD1002B5BD0C04300280CD0FF2E7ED01B2800DD92E01D002024C540201A8340581E83412B43D31A34000D0064E7002E00D065E700200024B3
:4038C000ABE7FF2E67D08024E40440422343E3E7FF2400233CE7002C61D1002B7ED0002A00D124E79B185A0100D460E73E4A0C0013401CE7002C1ED1002B2FD1002A66D095
:4039000013000D0013E7012277E7002C1FD1002B5AD0C94300290BD0FF2E50D01B295FDC1F002024CF40611A8B40591E8B413B439B18340062E7002B1CD1002A4AD0130087
:403940000D00FF24F3E6130034000D00EFE6FF2E35D08024E40449422343DFE7002A00D1E5E68027981AFF04074000D152E7D31A0D00DCE6FF24002A00D1D8E68020DB0812
:40398000C003034204D0D208024201D113000D00DB00FF24CBE61300FF240D00C7E6002B0DD0FF24002A00D1C1E68021DB08C9030B42EDD0D2080A42EAD11300E8E713007F
:4039C000FF24B4E6012372E713003400AFE60027002022E780270020FF03F1E61300A6E60123A5E7FFFFFF7DFFFFFFFBF0B5564644465F464D46F0B444024600C70F83B0C4
:403A00008846650A360EBA463DD0FF2E22D00023EC00802599469B46ED0425437F3E43465C025800DB0F640A000E984636D0FF2830D080230021E400DB041C437F38301AB8
:403A40000190484642460843724E800030587A4013008746002D44D108239946063B9B46DDE70122FF2000241A406402C305640AD2071C431443200003B03CBC9046994655
:403A8000A246AB46F0BD002D20D104239946033B9B46C4E7002C17D1022102E0002C0AD10121321A01924A4643460A435A48920082587B409746200002F04CFA431F763005
:403AC0009C4040420021BAE70321B8E7280002F041FA431F9D4000237630464299469B469DE70C239946093B9B4698E780240022E403FF20B9E70024C2468B465A46534666
:403B0000022AAED0032A7DD0012A31D1012200201A400024A9E70122101A1B2856DD1A4000200024A1E78023DB031D424BD18023DB032B435C02640A3A00FF2095E76D0100
:403B40006001854230D2019A0024013A01921B220127290064006D00002901DBA84201D82D1A3C43013A002AF3D16A1E95412C4301987F300028CEDD620704D00F222240C0
:403B8000042A00D00434220103D5244A019814408030FE2800DD64E70122A401640AC0B21A4062E72C00A9E72D1A1A220124CFE76B02BCD500248023DB031C436402640A40
:403BC0004246FF2051E71C42B3D1F4E721002022C140101A8440621E94410C43620704D00F222240042A00D00434620104D5012201201A40002438E70122A401640A1A4080
:403C0000002032E78023DB031C436402640A5246FF202AE75871000098710000FFFFFFF7F0B557464E4645464300E0B446028846760A1F0EC40F002F47D0FF2F25D00023AF
:403C400080259A469946F600ED042E437F3F434642465D02D20F5B006D0A1B0E904640D0FF2B39D080220020ED00D20415437F3BFB1842465746591C62408C4607430F2F25
:403C80005CD86F49BF00C9598F46002E45D108239A46063B9946DAE7424602282DD0032800D1C3E0012800D0A2E0002500260240D4B27602ED05760A2E43E4072643300077
:403CC0001CBC90469946A246F0BD002E1AD104239A46033B9946BAE72A00511E8A41901CC6E70120002DC3D0280002F033F9431F76309D4043420020BAE70124FF25144018
:403D00000026D6E7300002F025F9431F9E400023763047429A46994699E70C239A46093B994694E780260024F603FF25C1E735004846B2E7350022004846AEE72904090C3B
:403D40000800370C3604360C2C0C7943704367437443060C64183619B14203D980214902884647440004000C310409188D01681E8541890E2943350CED19AD010D432901D1
:403D800004D5012369081D4063460D4319007F31002925DD680704D00F202840042800D00435280103D5274980330D401900FE29A3DC0124AD016E0A1440CDB279E78020EE
:403DC000C003064207D0054205D128434602760A4446FF256DE706437602760AFF2568E70124611A1B2905DD14400025002660E76346CBE72E002023CE40591A8D406B1E8C
:403E00009D412E43730704D00F233340042B00D00436730104D5012401251440002648E70124B601760A1440002542E780260124F6032E437602760A1440FF2539E7C046FD
:403E4000D8710000FFFFFFF7F8B54A024E0043024400240EC50F9B09360EC90F9209FF2E00D183E001204140A01BA9425CD0002800DC95E0002E1CD1002A00D081E05A07AF
:403E800004D00F221A40042A00D004335A013BD50134FF2C00D191E001209B015B0AE4B205405B02E4055B0AED0723432B431800F8BDFF2CE3D08021C9040A431B2800DD6B
:403EC00090E016002021C640081A8240511E8A4132439B1A5A0115D59B019E09300002F039F80538864084426CDC041B330020200134E340041BA640721E964100243343D1
:403F0000BDE70D005A07BCD1DF0801231D40FF2C33D1002F00D190E08022D20313003B435B025B0AFF24BCE700284FDD002E2ED0FF2CA4D08025ED042A431B2800DD97E092
:403F400016002025C640281A8240501E824132439B185A01D5D50134FF2C6DD001227B481A405B08034013430D0088E7002A00D07AE777E7031EC5D100257B025B0AE4B21C
:403F80008FE701380028A4D0FF2C97D177E7002A00D174E701380028DAD0FF2CCDD16EE7002821D1601CC0B2012858DD80279E1AFF0437402FD0D61A0D008FE701231D4014
:403FC00000236EE7624B241A334058E7002851D1601CC6B2012E33DDFF282DD09B185B0804004CE7012274E7002C1AD0FF2E1FD08024E404404223431B2800DD96E01D00E7
:404000002024C540201A8340581E83412B43D31A34000D005EE7002E00D05FE700250024ABE7002B44D0C0430028F0D0FF2EE3D11300FF240D0022E70D00FF24002330E73F
:40404000002C5DD1002B7DD0002A00D117E79B185A0100D456E73E4A040013400FE7002C1ED1002B2FD1002A65D013000D0006E701226DE7002C1FD1002B59D0C0430028BD
:404080000BD0FF2E4FD01B285EDC1D002024C540201A8340581E83412B439B18340058E7002B1CD1002A49D013000D00FF24E6E6130034000D00E2E6FF2E34D08024E404E8
:4040C00040422343DFE7002A00D1D8E68027981AFF04074000D14DE7D31A0D00CFE6FF24002A00D1CBE68020DB08C003034204D0D208024201D113000D00DB00FF24BEE622
:40410000002B10D0FF24002A00D1B8E68020DB08C003034203D0D208024200D11300DB000D00FF24ABE61300FF24A8E601236EE713003400A3E6002700251EE78027002592
:40414000FF03E9E613009AE60123A6E7FFFFFF7DFFFFFFFB4302590A4300C20F1B0E00207E2B0EDD9D2B0DDC802000040143952B0BDC9620C31AD9400B005842002A00D193
:4041800018007047034BD018FBE7963B99400B00F3E7C046FFFFFF7F70B5002830D0C317C5185D40C40F280001F0D4FE9E231B1A962B0DDC9622D21A95406A02520AD8B23D
:4041C0005202C005520AE40702432243100070BD992B19DC9922D21A9540124A2A40690704D00F210D40042D00D00432510103D50C4B1A409F231B1A9201520AD8B2DFE774
:40420000002400200022DBE705222E00121AB921D6402A00C91A8A40551EAA4135001543DBE7C046FFFFFFFBF8B556465F464D464446F0B40F00FD0FAA4609037C002E00F3
:404240005F00450F490A7F0D2943C5001803BC46400A570F640DDB0F3843D2009A4500D1AAE06646A61B002E00DCFFE06346002B39D10300134300D0D9E06B0709D00F2339
:404280002B40042B05D02B1DAB42AD416D4249191D000B0200D482E0CA4B01349C4200D1FEE00A005646C84BED081A405007640552020543120B640D002112030B0D1B05C4
:4042C0006405120B1A436308C04CF60714401C43640064083443280021003CBC90469946A246AB46F8BDB74B9C42C6D080231B041843382E00DDEBE01F2E00DD1EE12023DC
:404300009B1B9C4603006746BB40984613004746F3403B436746BA40571EBA4113430200F240EB1A9D42B6411D008A1A7642911B0B0231D54A02560A002E00D1B4E03000E8
:4043400001F008FE0300083B1F2B00DDB5E020222900D21AD1409E400A009D4032439C4200DDB1E01C1B631C1F2B00DDD5E0202114002800C91A8C40D8408D400443DA4052
:40438000681E854111002543002476E74146314300D134E2310045466B0700D06FE756464807ED08C9080543864B9C4235D00A036405120B640D7FE76346E31A9B46002BB8
:4043C00000DC8BE06746002F3CD07E4FBC4200D153E780273F0438435B46382B00DCF7E00243501E82410020D2B253194218AB4289411D00494289180B02CDD5714B01341C
:404400009C4200D13DE101206F4A6B080A4028401843D507054351082FE72B000B4300D1CBE180231B030B431A03120B44E7013E002E6DD1AE1AB5429B41091A5B42C91A6F
:40444000350075E70700174300D116E701235B429C46E3445B46002B00D0E0E0AA18AA429B4109185B4259181500C5E7002E75D1661C7605760D012E00DCF3E0AE1AB0464C
:404480004545BF410E1A7F42F61B370200D48FE0551BAA42B641411A76428E1B9A464BE756460022002507E7280001F053FD20300300083B1F2B00DC49E72A002838824069
:4044C00000259C4200DC4DE73F49E41A1140D4E60243501E8241D3B2002222E7002B00D0F3E0631C9C465B055B0D012B00DC9FE0344B9C4500D1C3E0AA180918AA42804110
:4045000040424118CD075208154349086446B4E62C4B9C4200D0ECE6AFE611001F3CE1400C00202B00D17FE04021CB1A9A4015436A1E95410021254300242DE73300070014
:40454000203BDF403B00202E70D04027BE1BB0400243501E824113430022E2E6002C4FD0184CA44500D1ABE08024240476422143382E00DDDFE01F2E00DD43E12027BC1BC8
:40458000A1460C004F46BC40A0462C004746F4403C434F46BD406F1EBD41F1402C43151BAA429241411A5242891A64469A46BFE641464546314300D0BEE60026002400254F
:4045C000F2E6C046FF070000FFFF7FFFFFFF0F801F2B59DC2027FF1ABC46070063469F405B46B9461700DF40B8464F4643461F4363469A40531E9A415B463A43D840F4E62B
:404600000C002C435CD0F643002E55D1551BAA42A441411A6442091B9A46644688E6964FBC4200D0D8E628E6002280E700208FE70B002B43002C00D0C2E0002B00D101E155
:404640000300134300D118E6AB18AB42B6410918764271180A0200D409E1884A1D00114064460AE6002C5BD10E002E4300D08AE00100114300D1C2E0010015009A46FCE5B5
:404680006446002100258FE620235B429C46DC4463460700DF405B46BC46202B00D1ACE040235F46DB1B98400243501E8241634613431A00002098E66F4CA44500D057E7E4
:4046C0000100150064469A46D7E5002C39D10C002C436ED0DB43002B1AD0674CA44568D0382B00DDA4E01F2B00DDAEE020240F00E41AA740B9462F00DF40B846A3464F46EE
:40470000444627435C46A5406C1EA541D9403D43AD1895429B4109185B42591864466BE60C002C4315D1010011437BD0010015009A46514CA1E50D43691E8D410021ECB2D5
:404740002DE74D4CA44534D0802424045B422143C6E7040014434ED0ED084C072C438025C9082D03294208D0C6082E4205D1D208410711430C009A463100620FC900E50046
:4047800011433D4C79E50600164300D175E5AE1AB0464545BF410E1A7F42F61B370200D4F4E5551BAA42B641411A7642891B9A4663E50100150064465FE5002200257BE52F
:4047C000002B3BD00300134315D0ED084B072B438025C9082D03294207D0C4082C4204D141070B002100D2081343C9005A0F1143DD00214C41E5204C3FE5002054E70026EE
:404800000025D1E534000F00203CE7403C00202E2BD04027BE1BB1400D43691E8D4100212C43BCE6802100260903134C0025BBE50D43691E8D410021EDB269E70100150088
:404840000D4C1AE50100150017E51C000F00203CE7403C00202B0CD04027FB1A99400D43691E8D410021254352E70021D4E71D0092E50021F3E7C046FF070000FFFF7FFF0E
:40488000F0B556464D4644465F46F0B41D000E034C00CB0F87B0070092468146360B640D98466AD06D4B9C4235D08022430F12041343F6001E43C3009946694B00279C46A5
:4048C0000023644402932B0368001B0BED0F51469B46400D009500D178E0604B98426CD05B46DA004B0F802109040B4313439B465346D9005A4B9C46002360444246201AD2
:404900006A40924601901F430F2F00D9B0E05548BF00C0598746374300D088E0002399460233082700260293CDE74346B34649460093029B009A9246022B00D0BFE1002121
:4049400053460122002689461A40444B002136030C0D2405360B2643434C1B0526401E437600D207760816434846310007B03CBC90469946A246AB46F0BD330003434FD07A
:40498000002E00D1BCE1300001F0E4FA03000B3B1C2B00DDADE11D220100D31A08393A008F408E40DA40B9461643304B00279C46002360444442029385E753465A46134349
:4049C0002CD1002300219B46023397E70B4320D05B46002B00D19EE1584601F0BBFA03000B3B1C2B00DD8FE102005946083A91408B461D21CB1A5146D9400B0059460B4317
:404A000051469B469140194B9C4660444042002374E7002300219B4601336FE703236DE70023994601330427002602934BE703230C27029347E70122D51A382D00DCB0E1CC
:404A400053461A4000210023002689467EE700238026994600223603004B77E7FF07000001FCFFFF18720000FFFF0F80F30300005E4500D972E100D16DE1019B4D46013B92
:404A800001930023340002935B461E020B0E1E430B020393330C994633041B0C494620000093FEF745FD009B370043430600494620009846FEF7C2FD2C0C09040C43A0458B
:404AC00009D9E419731EA74200D95CE1A04500D859E1023EE4194346E41A49462000FEF727FD0300009A80465343494620009B46FEF7A4FD2A040904120C0A4393450DD941
:404B00004346D219013B974200D93AE1934500D837E102235B429C46D219E0445B46D21A4346360433439B460399180C0B0C1D00059309045B46090C0C001B041B0C4443AE
:404B4000049159436B4368431B190D0CEB189C4203D980246402A44660441C0C09041B04090C20185D18824200D2DEE000D1D7E0161A029B9C465D1BAC459B415B42F61A76
:404B8000B74200D106E149463000FEF7D1FC009B04004343494630009846FEF74FFD2E0C09040E43B04509D9F619631EB74200D9F3E0B04500D8F0E0023CF6194346F31A9C
:404BC000494618000293FEF7B3FC009B06004343494602989846FEF731FD2D0409042D0C0D43A84509D9ED19731EAF4200D9D6E0A84500D8D3E0023EED1924042100434647
:404C00003143049E059A3000ED1A0B040C0C1B0C58436643534354439A19030C9B189E4203D980225202944664441A0C00041B04000C14191B18A54250D34DD001231943C4
:404C4000964A019B94466344002B00DCF3E64A0709D00F220A40042A05D00A1D8A42894149428B4411005A46D20108D55A468C4B1A4093468022D2009446019B6344894A29
:404C8000934200DD5BE65A46C908500708435602514601225B058146360B5B0D0A4055E680231B031E4211D05A461A420ED15E461E433603360B2A0089467B4B46E6032B12
:404CC00000D1E1E0012BBBD11A40BBE61E433603360B4246744B39E6002BB1D07D194A1EAF4252D91100A542A8D1039A9A42A5D1A6E703003E00283B9E400023994654E6BD
:404D000001F028F9203041E603005246283B9A400021934677E6504601F01CF920305EE6029B0026AB4200D323E7039E0299B44661448846B045B6415B467642F619B21837
:404D4000013B0291974213D290424FD800D18EE0161A9B460DE7894500D28EE674084B46F60735005B081D434B46DB0702938BE69742EDD10399029CA142E5D93E1A9B462F
:404D8000F7E69846CAE61E00A5E6AC423ED874D0110053E70121494252E71C000EE71E002BE71F2D3CDC20230A0058465B1B9840EA4099400243481E81415E461143EE40F2
:404DC0004B0709D00F230B40042B05D00B00191D99429B415B42F61833023CD55346012200211A40002601238946AFE502235B429C46039CE344A446029B63449846A045DF
:404E0000B6417642F6190293B218B1E603988A1E41008142B6417642F619AD19039161E71F225242D31A5A46DA401300202D29D040225846551BA8400143481E8141072057
:404E40000B4318400026002809D00F2200261A401900042ABBD10B0070077602360BDB0803439946012253461A4000236EE502998D42BBD89B4600267BE603989842C5D3A0
:404E8000110032E70020D7E780265B4636031E433603360B009A8946034B57E5FF030000FFFFFFFEFE070000FF070000F0B55F4656464D464446F0B41F035C00DB0F9A46A5
:404EC000194B0E034D00C90F8046360B6D0D8B4691463F0B640D9D4219D0134B9C421BD00123A54206D018003CBC90469946A246AB46F0BDBE42F6D1C845F4D1D34510D088
:404F0000002DF0D1304303005A1E9341EBE7310001230143E7D1E0E73A430123002AE2D1DEE70023DFE7C046FF070000F0B55F46444656464D46F0B41F033C0B2C4F0E0303
:404F40004D00A3465C008446360B6D0DC90F9046640DDB0FBD422BD0254FBC422ED0002D0ED130430700814678427841002C17D15F463A4314D14B460020002B0AD006E030
:404F8000002C02D15846024301D099421AD00123484218433CBC90469946A246AB46F0BD0028F2D058425841012240421043F1E737000743D0D002204042EBE75F461743BA
:404FC000CDD0F8E7A542E2DC05DB5E45DFD808D000205E45DED248424841012340421843D8E7C445D3D80020C445F4D3D2E7C046FF070000F0B55F464D4644465646F0B428
:405000001C03240BA4462F4C0F034D005E00C90F80463F0B6D0D8B469146760DDB0FA54220D0284CA64222D0002D12D1384344424441002E20D0002C0DD05C426341012440
:405040005B421C4320003CBC90469946A246AB46F0BD002E17D05B4519D05B465C4201231C43EFE7390002240143EBD1D9E7614602241143E6D1D7E761460A43DBD1002432
:405080000028DFD0E9E761460A43E4D1E5E7B54203DD01225C421443D4E7B542CDDB6745DBD809D000246745CCD259464C426141012449420C43C5E7C845CED80024C84587
:4050C000F3D3BFE7FF070000F0B55F4656464D464446F0B40D0399464E002B0B87B00700924680469B46760DCC0F002E69D06D4B9E4235D05B468022DD001204430F134327
:405100002B439B46C3009846674B00279C460023664401934A4615035000D20F53462D0B400D914600D176E05E4A90426CD080225B0F120413435C4AED0094461D435346DA
:405140000022DB00604449463618701C6140029017430F2F00D9AFE05448BF00C759BF465B461F4300D088E000239B469846023308270193CEE74946022A6AD0032A00D1B5
:4051800009E2012A00D0BBE111400022002300259046CCB200212D030A0D12052D0B1543434A1B0515401D436D00E4076D0825434046290007B03CBC90469946A246AB46CC
:4051C000F0BD034352D05B46002B00D18AE1584600F0C0FE03000B3B1C2B00DD7BE11D22D31A3A0001005D46DA4008398D4013008F402B439B46B8462E4B00279C46002377
:4052000060444642019385E752462A432CD100250023022297E752462A4321D0002D00D154E1280000F096FE03000B3B1C2B00DD46E11D21CB1A51460200D9405346083A3D
:40524000954093400D431B4A944660444042002279E7012400220C40124B0025904699E70025002301226EE703226CE700239B4698460133042701934CE703230C270193B7
:4052800048E700238025984600242D03054B81E75D464346019A6FE75D4643462100019A6AE7C046FF07000001FCFFFF58720000FFFF0F80F30300004246120C91461A0CC0
:4052C0009446424617044A461B041B0C5A43604690464A4642431000039262461C003F0C7A437C4342440192220C9246019A5244904506D98246802040028046C2445046ED
:405300000390100C049048462404240C1204121905922A0C2D042D0C68432C00824648467C4350438146200C8046574357444744BA4503D9802040028046C144380C3F04C5
:40534000B84648442404240C01900498A044404404905846000C814658460404200C8246070048465F434C464343604660436446834650464443380C8446E4186444A34258
:4053800003D980235B029C46E34448463F04230C3F0C2404E419574668436F4384464D46504655434243380C814662444A445B44944503D9802040028446654403983F04C8
:4053C000834604983F0C8446E344C345804140428246100484460198674484466744A344BC46A345A4419946D44464428742BF41D4458041E144A04699459B417F42404264
:40540000C8440743120CBA18A045A4415F423B0064422343D71843467D19DB0D6D021D435B465A02059B1A43531E9A415B46DB0D1A4343465B021343EA0107D501225C08F9
:4054400013402343EA07029E13436D08574AB218002A4BDD580709D00F201840042805D0181D98429B415B42ED180300E80104D54F4A15408022D200B2184E48824200DDE5
:40548000E7E60124DB08680718436D02530580462D0B5B0D0C407DE6802259461203114208D0154206D115432D0398462D0B4C46414B6FE65D4615432D032D0B3E4B69E676
:4054C00003005546283B9D400023BCE6504600F041FD2030A8E60300283B9F400023BB46984689E600F036FD203073E60124A61A382E07DD00220C4000230025904649E6FB
:40550000029EA3E71F2E20DC20222C001800921BF040944093400443581E83411C43F540630709D00F232340042B05D023001C1D9C4292415242AD182B021FD5012400222F
:405540000C4001230025904624E61F202C004042821AD440202E1CD04022961BB5402B43581E83410720234318400025002809D00F2200251A401C00042AD8D123006807EF
:405580006D022D0B0124DB08034398460C40002300E60025E3E780220124120315432D0398462D0B0C40044BF4E5C046FF030000FFFFFFFEFE070000FF070000F0B5574696
:4055C0004E464546E0B40E001100F20F9246C500420F180337037400400A4E0F7F0A3043CF4E17435A00640D520DDB0FC900B24200D1E5E001267340A61AB446534500D1A3
:40560000AFE0002E00DC0DE1002A3AD103000B4300D0E4E06B0709D00F232B40042B05D02B1DAB42AD416D427F191D003B0200D488E0BB4B01349C4200D110E13A00B94BC4
:4056400051461A4001235007ED08520264050543120B640D0B400021280012030D0D120B64052D0515436208AF4CDB072C401443640064081C4321001CBC90469946A24694
:40568000F0BDA74B9C42C5D080231B0418436346382B00DDFDE01F2B00DD30E1624620239B1A02009A40664690460A009940F24046464B1E99413243114363460200DA404D
:4056C000691A8D429B410D00BA1A5B42D71A3B0235D57A02530A98464346002B00D1C4E0404600F037FC0300083B1F2B00DDC5E020222900D21A4746D1409F400A009D4070
:405700003A439C4200DDC0E01C1B631C1F2B00DDE4E0202114002800C91AD8408C408D400443DA40681E854117002543002471E7424663461A4300D14CE2674645466B0700
:4057400000D069E7012351467807ED08FA080B40054373498C4238D012036405120B640D79E7002E00DC9AE0002A47D06C4A944200D14FE78022120410436246382A00DCFE
:4057800008E10143481E81410022C9B24919D219A942BF410D007F42BF183A0200D442E15F4A0134944200D14EE101205D4A69083A4028400843D507054357089A4629E75A
:4057C00006000E4300D017E714E72900114300D1F9E1802109030A431203120B3BE701235B429846C4446346002B72D1691A8D429B413F1A5B42FF1A0D0068E702000A436D
:4058000000D107E7012252429046C4446246002A00D0E6E06918A942B6413F187642F7190D00BAE7002E00D080E0621C5205520D012A00DCF9E06A1A91464D45B6413A1AD2
:405840007642921B9046120200D499E04D1BA9428941C71B49427A1A90469A463CE752460123002513400022F5E6280000F072FB20300300083B1F2B00DC39E72A00283879
:40588000824000259C4200DC3EE7264FE41A1740C0E60143481E81410022C9B210E7002E00D0F1E0621C94465205520D012A00DCA0E01B4A944500D1C5E06918A94292415B
:4058C0003F185242D2194908D5070D4357086446A0E6134B9C4200D0D9E69BE611001F3CE1400C00202B00D180E04021CB1A9A4015436A1E95410027254300241FE763462D
:405900000200203BDA406346202B71D0402366469B1B98400143481E814111430022CFE6FF070000FFFF7FFFFFFF0F80002C48D0CA4CA24200D1A2E07442A146802424047E
:4059400027434C46382C00DDDBE01F2C00DD44E14E462024A41B3E00A640A246B0464C462E00E640B4464646644626435446A5406C1EA54134002C434D46EF400D1B28E046
:405980004A4643464D461A4300D0A5E6002300240025DEE61F2A5ADC66462022921B060096409146B04662460E00D640424616434A4691404A1E9141020060463143C2402A
:4059C000E4E63C002C435AD0F443A146002C52D14D1BA9428941C71B49427F1A14009A4675E69E4A944200D0C7E613E600227FE700208FE7002C00D0C8E03B002B4300D1B9
:405A00000FE103000B4300D104E66918A9429B413F185B42DF193B0200D41AE1904B0D001F406446F6E59A4689E63A002A43002C5CD1002A75D102000A4300D1CAE00700CE
:405A40000D009A46E6E564460022002581E662460600203AD6406246B046202A00D1B7E040226646921B904001434246481E8141114300228AE6794CA24200D061E707007B
:405A80000D0014009A46C5E5002C41D13C002C4378D0F443A146002C20D0704CA24271D04C46382C00DDB2E01F2C00DDBCE02026341BA2463C005646B4404E46A0462C00D7
:405AC000F440A446444666463443A4465446A54064466E1EB54125434C46E7406D188D4289413F184942CF19140056E6002A2FD102000A4300D184E007000D009A46574CA8
:405B000088E53D436F1EBD41ECB200270D1B60E7524CA24236D0744280263604A1463743BEE702000A4300D174E56A1A90464545B6413A1A7642921B9446120200D4F7E5EA
:405B40004D1BA9428941C71B49427F1A9A4661E502000A433AD0ED087C072C438025FA082D032A4208D0C7082F4205D145072C003A009A46C9080C43670FD200E500174332
:405B8000364C47E507000D00140043E53A002A4343D002000A4319D0ED087C072C438025FA082D032A4207D0C6082E4204D147073C003200C9080C43D700620FE50017437E
:405BC0009A46264C26E50022002544E5234C21E5002049E700230025BBE54C463E00203CE6404C46B446202C31D040244E46A61BB7403D436C1EA54164462C4300270D1BF8
:405C0000E7E6802200231203144C0025A1E53D436F1EBD410027EDB260E707000D000F4CF8E407000D00F5E44E463C00203EF440A0464C46202C0ED040244E46A41BA740C0
:405C40003D436F1EBD4144460027254346E70027CFE70D0073E50027F2E7C046FF070000FFFF7FFF70B50E4E0C031D0349005B00240B490D2D0B5B0DB14204D00849002058
:405C80008B4208D070BD04430120002CFAD1044900208B42F6D115432800451EA841F1E7FF0700000B0330B5134D1A0B4B005B0DC90F0024AB4211DD104CA34210DC802435
:405CC000640322430E4CE41A1F2C0CDD0D48C31ADA4013005C42002900D11C00200030BD094BCC18FAE7E040084CA44663449A4013000343EEE7C046FE0300001D040000DE
:405D00003304000013040000FFFFFF7FEDFBFFFF70B5002830D0C317C4185C40C50F200000F018F9174B184A1B1AD21A1F2A18DD164AD21A9440002224035B05240B5B0D9C
:405D40000021100024030A0D1205240B1443104A1B0514401C436400ED0764082C43210070BD210091400A000B21081AC4405B052403240B5B0DE3E70025002300240022A5
:405D8000DEE7C0461E0400003304000013040000FFFF0F804200120E511C4302C9B270B55D0AC40F012915DDE02189008C466D071B0B6244002128000D0D2D052B431C4D09
:405DC00052052B40520813435B00E4075B082343190070BD002A15D1002D1FD0280000F0B9F80A281DDC0B232A001B1ADA4013000200153295400F4A1B03121A52051B0BC4
:405E0000520DD7E7002D06D080221B0B120313436D07094ACEE7084A0023CBE700220023C8E703000B3B9D402B000025E3E7C046FFFF0F8089030000FF0700004B0070B5A3
:405E40005E0D0C03751C640A420F6D052243C90FC4006D0D012D2ADD3B4BF318FE2B1ADC002B42DD8001451EA841D2001043620F0243500704D00F201040042800D00432B8
:405E80008020C004104021D00133FF2B03D09201520ADBB201E0FF2300225202520ADB0513435B00C9075B080B43180070BD002E07D01443EFD08020D20080040243FF23EC
:405EC000D7E722430023002A03D00522D208FF2B03D05202520ADBB2DFE7002A32D08020C00302435202520AD7E71800173014DB8020000402431E20C01A1F280FDC250076
:405F0000124BF3189D406E1EB5419A402B0013432200C2401A430023ABE70023D5E702256D42EB1A1500DD40202809D0084BF3189A401443621E9441220000232A4398E7E7
:405F40000022F6E70022A8E780FCFFFF82FCFFFFA2FCFFFF1C2101231B04984201D3000C10391B0A984201D3000A08391B09984201D30009043902A2105C40187047C04601
:405F800004030202010101010000000000000000014B18687047C0465C0100200E4B70B500251E000D4CE41AA410A54204D0AB00F35898470135F8E701F0BCF9084B00253D
:405FC0001E00084CE41AA410A54204D0AB00F35898470135F8E770BD4073000040730000407300004873000003008218934202D019700133FAE770470FB40B4B13B51C68D9
:40600000002C05D0A369002B02D1200000F03CFA05AB049AA1682000019300F001FC16BC08BC04B01847C0465C01002070B505000E00002804D08369002B01D100F024FAC0
:40604000AB69AC68002B02D1280000F01DFA254B9C4201D16C6808E0234B9C4201D1AC6803E0224B9C4200D1EC68A3891B0702D52369002B11D12100280000F09BF80028B8
:406080000BD0012040422BE0013B0136A360002B08DB23685A1C226019703178A3680029F2D10BE0A269934201DB0A29F1D12200280000F027F8431CEFD1E2E7013BA3600B
:4060C000002B08DA22000A31280000F01BF8431CD7D00A2004E00A2023685A1C2260187070BDC046A0720000C0720000E072000010B5034B01001868FFF798FF10BDC04605
:406100005C010020F8B505000F001400002804D08369002B01D100F0B7F9234B9C4201D16C6808E0214B9C4201D1AC6803E0204B9C4200D1EC68A369A360A3891B070AD5F1
:406140002369002B07D023682269FEB2981A636998420FDB08E02100280000F02BF80028F1D0012040421DE02100280000F01EF90028F6D1A3680130013BA36023685A1C01
:4061800022601F706369984205D0A3893000DB0708D50A2E06D12100280000F007F90028DFD13000F8BDC046A0720000C0720000E0720000364B70B51D6806000C00002D2D
:4061C00005D0AB69002B02D1280000F05DF9314B9C4201D16C6808E02F4B9C4201D1AC6803E02E4B9C4200D1EC680C22A35E9AB2110723D4D10607D4092201203260373242
:406200001343A381404242E0530713D5616B002908D023004433994202D0300000F02CFA002363632422A3899343A38100236360236923600822A3891343A3812369002BD3
:406240000BD1A0238022A1899B0092000B40934203D02100300000F0D1F90123A289134005D00023A36063695B42A36103E0920700D46369A36000202369834207D10C22E8
:40628000A35E1A0603D540221343A381013870BD5C010020A0720000C0720000E0720000F7B58A8905000C0013075AD44B68002B02DC0B6C002B19DDE76A002F16D000239B
:4062C0002E682B6080235B011A4001D0606D14E00123216A2800B847431C0ED12B68002B0BD01D2B01D0162B02D12E6000205AE04022A3891343A38155E0A3895B0706D52A
:406300006368C01A636B002B01D0236CC01A00230200216A2800E76AB847A389421C06D129681D293AD8204ACA40D20736D50022626022692260DB0405D5431C02D12B684C
:40634000002B00D16065616B2E600029CED023004433994202D0280000F08EF90020606321E00F69002FC1D00B680F60DB1B01930023920700D14B69A36003E0019B3F18B3
:406380001B1A0193019B002BB0DD019B3A00216A2800A66AB0470028F0DCA389402201201343A3814042FEBD010040200B6970B505000C00002B01D100201CE0002804D0B6
:4063C0008369002B01D100F05FF80B4B9C4201D16C6808E0094B9C4201D1AC6803E0084B9C4200D1EC680C22A35E002BE4D021002800FFF755FF70BDA0720000C072000048
:40640000E072000010B5024900F0B0F810BDC046AD630000002310B5040003604360836081814366C281036143618361190008225C30FFF7D9FD054B24626362044BA36246
:40644000044BE362044B236310BDC0469D6D0000C56D0000FD6D0000296E000070B568254B1E5D430E002900743100F051F9041E08D000212A00016046600C30A0606832B0
:40648000FFF7B2FD200070BD836913B50400002B28D18364C3640365134B144A1B6882620193984201D101238361200000F020F86060200000F01CF8A060200000F018F801
:4064C0000022E06004216068FFF7A4FF01220921A068FFF79FFF02221221E068FFF79AFF0123A36113BDC0469C72000005640000F8B51D4B06001D68AB69002B02D128004E
:40650000FFF7C2FF4835AC686B68013B05D40C22A75E002F10D06834F7E72B68002B01D02D68F0E704213000FFF798FF28600028F6D10C23336016E0012320005B42E3811E
:406540000233A38167662760A760676027616761A7615C3008223900FFF746FD20006763A763A764E764F8BD9C720000F7B504000700002601914834002C16D06368A5683E
:406580000093009B013B00930DD4AB89012B08D90E22AB5E013304D029003800019B984706436835EDE72468E6E73000FEBD000070B50E001D000E23C95E90B0140000297C
:4065C00006DA00232B60B3891B060FD540230FE001AA00F055FC0028F3DBF023029A1B021340054A9B185A4253412B608023DB000020236010B070BD00E0FFFFF7B50226FC
:406600008B8905000C00334210D101AB6A46FFF7CFFF00990700280000F07AF800280CD10C22A35E9A0523D43343A3812300473323602361012363611AE080220D4BAB62A4
:40664000A38920601343A381009B20616361019B002B0AD00E23E15E280000F023FC002803D00122A3891343A381A3891F43A781F7BDC0460564000070B50500002944D0C8
:406680000C1F2368002B00DAE418280000F03BFC1E4A13681100002B02D16360146031E0A3420DD92268A018834203D118685B688218226063600C6024E0A24203D8130090
:4066C0005A68002AF9D11E689819A0420BD12168711858181960824214D110685268411819605A600EE0A04202D90C232B6009E021686018824203D110685268411821609A
:4067000062605C60280000F0FFFB70BDB8010020032370B5CD1C9D43083506000C2D01D20C2501E0002D01DBA94202D90C23336048E0300000F0E7FB234B1C681A00210066
:40674000002913D00B685B1B0DD40B2B02D90B60CC181EE08C4202D1636813601AE04B6863600C0016E00C004968E9E7174C2368002B03D1300000F0FFFA20602900300028
:4067800000F0FAFA431C18D00323C41C9C43A0420DD12560300000F0B7FB200007220B30231D9043C31A0ED05A42E2500BE0211A300000F0E1FA431CEBD10C233000336064
:4067C00000F0A2FB002070BDB8010020B4010020936810B5013B9360002B05DA9469A34208DBCBB20A2B05D01368581C10601970C8B201E0FFF786FC10BDF8B506000F0082
:406800001400D518AC4208D021783A003000FFF7DFFF0134431CF5D100E00020F8BD0000F0B59FB006000F0002920593002804D08369002B01D1FFF727FE7F4B9F4201D1F9
:40684000776808E07D4B9F4201D1B76803E07C4B9F4200D1F768BB891B070AD53B69002B07D0002306AD6B6120336B761033AB763DE039003000FFF79DFC0028F1D00120B8
:406880004042D6E0059A111D12680591002A00DA7FE00992013423782E2B00D18DE021780322684800F024FB002807D0654B2A68C01A4023834013432B6001342178631C72
:4068C000062261480293297600F012FB002800D19DE05E4B002B00D090E00722059B07339343083305936B69039A9B186B61029C2378002B04D1029BE31A049312D003E041
:40690000252BF8D00134F3E7049B029A39003000FFF773FF431C00D186E06A69049B944663446B612378002B7ED00122002352426A6002A95432521801342B60EB60AB6066
:406940001370AB6521780522414800F0D1FA002808D03F4B2A68C01A0123834013432B600134EFE72B68DA0604D55322202102A8121811701A0704D553222B2102A81218D1
:40698000117022782A2A00D17CE7099B00200A2105E05242EA60022213432B607AE72278303A092A04D84B4301349B180120F6E7002800D16FE709936DE763782A2B0AD14B
:4069C000059B02341A1D1B680592002B01DA01235B42079363E700230A201A0001346B6021783039092904D84243013452180123F6E7002B00D152E7079250E705AB0093E1
:406A00003A00144B2900300000E000BF07E005AB00933A000F4B2900300000F08BF80390039B013300D05EE7BB895B0600D526E70B981FB0F0BDC046A0720000C0720000D1
:406A4000E0720000067300000A7300000000000000730000FB670000F7B5170001938A680B6900900C00934200DA130022003B6043321278002A01D001333B6023689B062C
:406A800002D53B6802333B60062523681D401ED0230043331B785A1E9341226892061CD53020E1184331087021005A1C45310978A2184332023311700FE0220001231932D8
:406AC00001990098089EB047431C0ED00135E3683A689B1A9D42F0DBDAE72200019943320098089DA847431C02D10120404220E006232068E1683A6803400025042B03D10E
:406B00008D1AEB43DB171D40A3682269934201DD9B1AED180027BD420AD0220001231A3201990098089EB047431CDED00137F2E70020FEBDF0B58BB006920A004332079343
:406B4000059004920A7E0C00109B6E2A00D1ABE011D8632A22D009D8002A00D1B5E0582A00D0C5E045310A70814A4FE0642A1DD0692A1BD0BCE0732A00D1AAE009D86F2AF6
:406B800029D0702A00D0B3E0202209680A43226037E0752A1FD0782A33D0A9E00E001A684236111D196013683370A4E021681A68080606D4490604D5111D19600023D55E21
:406BC00002E0111D19601568002D3BDA2D23049A6D42137036E021681A68080606D4490604D51568111D1960ADB202E0111D196015685F4B227E039308276F2A1DD00A27AD
:406C00001BE022007821453211705A4A19680392081D226818600D68100602D4500600D5ADB2D30702D520231A4322601027002D03D1202322689A432260230000224333E8
:406C40001A7002E00A274A4B03936368A360002B09DB0422216891432160002D05D1049E002B11D07BE0002D79D0049E28003900FCF7E4FC039B013E5B5C2800337039007B
:406C8000FCF756FC051EF1D1082F09D12368DB0706D563682269934202DC3023013E3370049B9B1B23612BE009681A68080607D4490605D5111D19601368A28A1A8004E05E
:406CC000111D1960136862691A600023049E236116E01A68111D1960166800216268300000F006F9002801D0801B6060636803E0260042363270012323610023049A13700F
:406D0000079B09AA00932100069B0598FFF7A4FE431C02D10120404227E02369320006990598079DA847431CF4D0236800259B070FD4099BE068984217DA180015E02200CD
:406D40000123193206990598079EB047431CE1D00135E368099A9B1A9D42F0DBE9E72600039B42361B7833708EE70BB0F0BDC0461173000022730000002370B5064C05005C
:406D800008002360F9F72CFF431C03D12368002B00D02B6070BDC0465C02002070B50C000E25495F00F0B2F8002803DB636D1B18636503E0A289024B1340A38170BDC046BC
:406DC000FFEFFFFFF8B51F008B8905000C001600DB0505D50E23C95E0022022300F074F8A289054B28001340A38132000E23E15E3B0000F01FF8F8BDFFEFFFFF70B50C001B
:406E00000E25495F00F060F8A389421C03D1054A1340A38104E0802252011343A381606570BDC046FFEFFFFF10B50E23C95E00F015F810BD70B50500080011000022064C36
:406E400022601A00F9F704FD431C03D12368002B00D02B6070BDC0465C020020002370B5064C05000800236000F064F8431C03D12368002B00D02B6070BDC0465C02002025
:406E8000002370B5064C050008001100236000F059F8431C03D12368002B00D02B6070BD5C020020002370B5064C05000800236000F050F8431C03D12368002B00D02B60C1
:406EC00070BDC0465C02002070B50500080011000022064C22601A0000F044F8431C03D12368002B00D02B6070BDC0465C020020C9B28218904204D003788B4202D0013067
:406F0000F8E70020704770477047000070B50500080011000022064C22601A0000F02AF8431C03D12368002B00D02B6070BDC0465C02002058220120014B40421A60704739
:406F40005C02002058220120014B40421A6070475C0200205822024B00201A607047C0465C02002058220120014B40421A6070475C02002058220120014B40421A6070472D
:406F80005C02002000000000A4020000740200008C020000AC020000AC020000AC020000AC020000AC020000AC020000AC02000094020000640200007C020000AC020000BF
:406FC000AC020000AC020000AC020000AC020000AC020000AC0200009C0200006C020000840200007C08000096080000B0080000CA080000E4080000FE080000180900002C
:40700000320900004C09000066090000800900009A090000B4090000CE090000E8090000020A0000566D4D5F4E4761696E5F3164423A2025642E0A00566D4D5F4761696E19
:407040005F3164423A2025642E0A0000496E697469616C697A6174696F6E20446F6E6500494E435F4741494E3A2025642E200A0055706461746564204761696E3A20256475
:407080002E0A00004445435F4741494E3A2025642E200A004761696E2043686E6167650052444143302056616C2069733A20256C640A000052444143312056616C206973C2
:4070C0003A20256C640A00004144432076616C3A2025640A0000000000300F40000400400F40000430013E0158045F011A80AA406220A220AA20D840EE80000004300F4042
:4071000001310F4001330F4005410F40030405060708090A0B0C0E0F101112131415161718191B1C1D1E1F2021222325262728292A2B2E2F30313233343500006C6F673153
:4071400030000000706F7700000000000000304300000000000030C33E3B0000623A0000203B0000F83A0000203B0000EC3A0000203B0000F83A0000623A0000623A00003B
:40718000EC3A0000F83A0000A43B0000A43B0000A43B0000263B0000623A0000623A00000C3B0000F63A00000C3B0000EC3A00000C3B0000F63A0000623A0000623A0000AE
:4071C000EC3A0000F63A0000A43B0000A43B0000A43B0000B03B00003C3D00009A3C00009A3C0000983C00002E3D00002E3D0000243D0000983C00002E3D0000243D0000E1
:407200002E3D0000983C0000343D0000343D0000343D0000BE3D0000704A00003E490000444A000034490000444A00004E4A0000444A0000344900003E4900003E49000036
